:020000040000FA
:100000000F0EC16E816A9380896A926A016A81B01B
:1000100001B010EF00F001B227EF00F0896AF7D7C6
:10002000894689A818EF00F08942894289428942AD
:10003000FA0E156EFA0E146E0000000000000000AB
:1000400000000000142EF8D7152EF4D7E0D789420F
:1000500089AE2FEF00F08946894689468946FA0E17
:10006000156EFA0E146E0000000000000000000083
:0C0070000000142EF8D7152EF4D7C9D7C5
:02007C00000082
:020000040030CA
:0100010008F6
:010003001EDE
:010006008178
:00000001FF
