:020000040000FA
:0400000007EF00F016
:0A000800068255ED03F061EF03F0EE
:100600000000000E026E010E016E000E056E0F0E50
:10061000C16E000E946E0F0E8B6ED08EF28E9E9277
:100620009F829D82CA687A0ECB6ED3508F0B600971
:10063000D36E9280C198C19AC150F00B0E09C16E61
:10064000C30EC216C050F80B0409C06EC050C70BD1
:100650001009C06EC280C08E9D8C9E9CF28CF28E62
:10066000C2820550036E046A0150031807E102506C
:100670000418D8A43EEF03F040EF03F031EF03F08D
:100680000F0E8B18D8A447EF03F049EF03F04DEF9E
:1006900003F0000E8B6E4FEF03F00F0E8B6E000E0B
:1006A000056E31EF03F007EF00F006009EA25BEF4E
:1006B00003F05DEF03F05FEF03F0052A9E920692D0
:0E06C0001100056A06900692000101EF03F09A
:020000040020DA
:08000000FFFFFFFFFFFFFFFF00
:020000040030CA
:0E000000FF081F1EFF8381FF0FC00FE00F409F
:00000001FF
